{
  "_format": "hh-sol-artifact-1",
  "contractName": "Voting",
  "sourceName": "contracts/Voting.sol",
  "abi": [
    {
      "inputs": [
        {
          "internalType": "string[]",
          "name": "candidateNames",
          "type": "string[]"
        }
      ],
      "stateMutability": "nonpayable",
      "type": "constructor"
    },
    {
      "anonymous": false,
      "inputs": [
        {
          "indexed": false,
          "internalType": "uint256",
          "name": "id",
          "type": "uint256"
        },
        {
          "indexed": false,
          "internalType": "string",
          "name": "name",
          "type": "string"
        }
      ],
      "name": "CandidateAdded",
      "type": "event"
    },
    {
      "anonymous": false,
      "inputs": [
        {
          "indexed": false,
          "internalType": "uint256",
          "name": "candidateId",
          "type": "uint256"
        },
        {
          "indexed": false,
          "internalType": "address",
          "name": "voter",
          "type": "address"
        }
      ],
      "name": "Voted",
      "type": "event"
    },
    {
      "anonymous": false,
      "inputs": [],
      "name": "VotingClosed",
      "type": "event"
    },
    {
      "inputs": [
        {
          "internalType": "string",
          "name": "name",
          "type": "string"
        }
      ],
      "name": "addCandidate",
      "outputs": [],
      "stateMutability": "nonpayable",
      "type": "function"
    },
    {
      "inputs": [
        {
          "internalType": "uint256",
          "name": "",
          "type": "uint256"
        }
      ],
      "name": "candidates",
      "outputs": [
        {
          "internalType": "uint256",
          "name": "id",
          "type": "uint256"
        },
        {
          "internalType": "string",
          "name": "name",
          "type": "string"
        },
        {
          "internalType": "uint256",
          "name": "voteCount",
          "type": "uint256"
        }
      ],
      "stateMutability": "view",
      "type": "function"
    },
    {
      "inputs": [],
      "name": "candidatesCount",
      "outputs": [
        {
          "internalType": "uint256",
          "name": "",
          "type": "uint256"
        }
      ],
      "stateMutability": "view",
      "type": "function"
    },
    {
      "inputs": [],
      "name": "closeVoting",
      "outputs": [],
      "stateMutability": "nonpayable",
      "type": "function"
    },
    {
      "inputs": [
        {
          "internalType": "uint256",
          "name": "candidateId",
          "type": "uint256"
        }
      ],
      "name": "getCandidate",
      "outputs": [
        {
          "components": [
            {
              "internalType": "uint256",
              "name": "id",
              "type": "uint256"
            },
            {
              "internalType": "string",
              "name": "name",
              "type": "string"
            },
            {
              "internalType": "uint256",
              "name": "voteCount",
              "type": "uint256"
            }
          ],
          "internalType": "struct Voting.Candidate",
          "name": "",
          "type": "tuple"
        }
      ],
      "stateMutability": "view",
      "type": "function"
    },
    {
      "inputs": [],
      "name": "getWinner",
      "outputs": [
        {
          "internalType": "string",
          "name": "winnerName",
          "type": "string"
        },
        {
          "internalType": "uint256",
          "name": "winnerVotes",
          "type": "uint256"
        }
      ],
      "stateMutability": "view",
      "type": "function"
    },
    {
      "inputs": [],
      "name": "owner",
      "outputs": [
        {
          "internalType": "address",
          "name": "",
          "type": "address"
        }
      ],
      "stateMutability": "view",
      "type": "function"
    },
    {
      "inputs": [
        {
          "internalType": "uint256",
          "name": "candidateId",
          "type": "uint256"
        }
      ],
      "name": "vote",
      "outputs": [],
      "stateMutability": "nonpayable",
      "type": "function"
    },
    {
      "inputs": [
        {
          "internalType": "address",
          "name": "",
          "type": "address"
        }
      ],
      "name": "voters",
      "outputs": [
        {
          "internalType": "bool",
          "name": "",
          "type": "bool"
        }
      ],
      "stateMutability": "view",
      "type": "function"
    },
    {
      "inputs": [],
      "name": "votingOpen",
      "outputs": [
        {
          "internalType": "bool",
          "name": "",
          "type": "bool"
        }
      ],
      "stateMutability": "view",
      "type": "function"
    }
  ],
  "bytecode": "0x60806040526001600360146101000a81548160ff02191690831515021790555034801561002b57600080fd5b50604051611c39380380611c39833981810160405281019061004d9190610396565b33600360006101000a81548173ffffffffffffffffffffffffffffffffffffffff021916908373ffffffffffffffffffffffffffffffffffffffff16021790555060005b81518110156101345760405180606001604052808281526020018383815181106100be576100bd6103df565b5b602002602001015181526020016000815250600080838152602001908152602001600020600082015181600001556020820151816001019081610101919061062f565b50604082015181600201559050506002600081548092919061012290610730565b91905055508080600101915050610091565b5050610778565b6000604051905090565b600080fd5b600080fd5b600080fd5b6000601f19601f8301169050919050565b7f4e487b7100000000000000000000000000000000000000000000000000000000600052604160045260246000fd5b61019d82610154565b810181811067ffffffffffffffff821117156101bc576101bb610165565b5b80604052505050565b60006101cf61013b565b90506101db8282610194565b919050565b600067ffffffffffffffff8211156101fb576101fa610165565b5b602082029050602081019050919050565b600080fd5b600080fd5b600067ffffffffffffffff82111561023157610230610165565b5b61023a82610154565b9050602081019050919050565b60005b8381101561026557808201518184015260208101905061024a565b60008484015250505050565b600061028461027f84610216565b6101c5565b9050828152602081018484840111156102a05761029f610211565b5b6102ab848285610247565b509392505050565b600082601f8301126102c8576102c761014f565b5b81516102d8848260208601610271565b91505092915050565b60006102f46102ef846101e0565b6101c5565b905080838252602082019050602084028301858111156103175761031661020c565b5b835b8181101561035e57805167ffffffffffffffff81111561033c5761033b61014f565b5b80860161034989826102b3565b85526020850194505050602081019050610319565b5050509392505050565b600082601f83011261037d5761037c61014f565b5b815161038d8482602086016102e1565b91505092915050565b6000602082840312156103ac576103ab610145565b5b600082015167ffffffffffffffff8111156103ca576103c961014a565b5b6103d684828501610368565b91505092915050565b7f4e487b7100000000000000000000000000000000000000000000000000000000600052603260045260246000fd5b600081519050919050565b7f4e487b7100000000000000000000000000000000000000000000000000000000600052602260045260246000fd5b6000600282049050600182168061046057607f821691505b60208210810361047357610472610419565b5b50919050565b60008190508160005260206000209050919050565b60006020601f8301049050919050565b600082821b905092915050565b6000600883026104db7fffffffffffffffffffffffffffffffffffffffffffffffffffffffffffffffff8261049e565b6104e5868361049e565b95508019841693508086168417925050509392505050565b6000819050919050565b6000819050919050565b600061052c610527610522846104fd565b610507565b6104fd565b9050919050565b6000819050919050565b61054683610511565b61055a61055282610533565b8484546104ab565b825550505050565b600090565b61056f610562565b61057a81848461053d565b505050565b5b8181101561059e57610593600082610567565b600181019050610580565b5050565b601f8211156105e3576105b481610479565b6105bd8461048e565b810160208510156105cc578190505b6105e06105d88561048e565b83018261057f565b50505b505050565b600082821c905092915050565b6000610606600019846008026105e8565b1980831691505092915050565b600061061f83836105f5565b9150826002028217905092915050565b6106388261040e565b67ffffffffffffffff81111561065157610650610165565b5b61065b8254610448565b6106668282856105a2565b600060209050601f8311600181146106995760008415610687578287015190505b6106918582610613565b8655506106f9565b601f1984166106a786610479565b60005b828110156106cf578489015182556001820191506020850194506020810190506106aa565b868310156106ec57848901516106e8601f8916826105f5565b8355505b6001600288020188555050505b505050505050565b7f4e487b7100000000000000000000000000000000000000000000000000000000600052601160045260246000fd5b600061073b826104fd565b91507fffffffffffffffffffffffffffffffffffffffffffffffffffffffffffffffff820361076d5761076c610701565b5b600182019050919050565b6114b2806107876000396000f3fe608060405234801561001057600080fd5b506004361061009e5760003560e01c80638da5cb5b116100665780638da5cb5b1461015b5780638e7ea5b214610179578063a3ec138d14610198578063a95824b4146101c8578063c631b292146101e65761009e565b80630121b93f146100a35780632d35a8a2146100bf5780633477ee2e146100dd57806335b8e8201461010f578063462e91ec1461013f575b600080fd5b6100bd60048036038101906100b89190610a03565b6101f0565b005b6100c76103d5565b6040516100d49190610a3f565b60405180910390f35b6100f760048036038101906100f29190610a03565b6103db565b60405161010693929190610aea565b60405180910390f35b61012960048036038101906101249190610a03565b61048d565b6040516101369190610bd1565b60405180910390f35b61015960048036038101906101549190610d28565b61055f565b005b6101636106fa565b6040516101709190610db2565b60405180910390f35b610181610720565b60405161018f929190610dcd565b60405180910390f35b6101b260048036038101906101ad9190610e29565b61088c565b6040516101bf9190610e71565b60405180910390f35b6101d06108ac565b6040516101dd9190610e71565b60405180910390f35b6101ee6108bf565b005b60011515600360149054906101000a900460ff16151514610246576040517f08c379a000000000000000000000000000000000000000000000000000000000815260040161023d90610ed8565b60405180910390fd5b600160003373ffffffffffffffffffffffffffffffffffffffff1673ffffffffffffffffffffffffffffffffffffffff16815260200190815260200160002060009054906101000a900460ff16156102d3576040517f08c379a00000000000000000000000000000000000000000000000000000000081526004016102ca90610f44565b60405180910390fd5b6002548110610317576040517f08c379a000000000000000000000000000000000000000000000000000000000815260040161030e90610fb0565b60405180910390fd5b60018060003373ffffffffffffffffffffffffffffffffffffffff1673ffffffffffffffffffffffffffffffffffffffff16815260200190815260200160002060006101000a81548160ff021916908315150217905550600080828152602001908152602001600020600201600081548092919061039490610fff565b91905055507f030b0f8dcd86a031eddb071f91882edeac8173663ba775713b677b42b51be44b81336040516103ca929190611047565b60405180910390a150565b60025481565b60006020528060005260406000206000915090508060000154908060010180546104049061109f565b80601f01602080910402602001604051908101604052809291908181526020018280546104309061109f565b801561047d5780601f106104525761010080835404028352916020019161047d565b820191906000526020600020905b81548152906001019060200180831161046057829003601f168201915b5050505050908060020154905083565b610495610998565b600080838152602001908152602001600020604051806060016040529081600082015481526020016001820180546104cc9061109f565b80601f01602080910402602001604051908101604052809291908181526020018280546104f89061109f565b80156105455780601f1061051a57610100808354040283529160200191610545565b820191906000526020600020905b81548152906001019060200180831161052857829003601f168201915b505050505081526020016002820154815250509050919050565b600360009054906101000a900473ffffffffffffffffffffffffffffffffffffffff1673ffffffffffffffffffffffffffffffffffffffff163373ffffffffffffffffffffffffffffffffffffffff16146105ef576040517f08c379a00000000000000000000000000000000000000000000000000000000081526004016105e69061111c565b60405180910390fd5b60011515600360149054906101000a900460ff16151514610645576040517f08c379a000000000000000000000000000000000000000000000000000000000815260040161063c90610ed8565b60405180910390fd5b604051806060016040528060025481526020018281526020016000815250600080600254815260200190815260200160002060008201518160000155602082015181600101908161069691906112e8565b50604082015181600201559050507fe83b2a43e7e82d975c8a0a6d2f045153c869e111136a34d1889ab7b598e396a3600254826040516106d79291906113ba565b60405180910390a1600260008154809291906106f290610fff565b919050555050565b600360009054906101000a900473ffffffffffffffffffffffffffffffffffffffff1681565b60606000600360149054906101000a900460ff1615610774576040517f08c379a000000000000000000000000000000000000000000000000000000000815260040161076b9061145c565b60405180910390fd5b60008060005b6002548110156107ca57826000808381526020019081526020016000206002015411156107bd576000808281526020019081526020016000206002015492508091505b808060010191505061077a565b50600080828152602001908152602001600020600101600080838152602001908152602001600020600201548180546108029061109f565b80601f016020809104026020016040519081016040528092919081815260200182805461082e9061109f565b801561087b5780601f106108505761010080835404028352916020019161087b565b820191906000526020600020905b81548152906001019060200180831161085e57829003601f168201915b505050505091509350935050509091565b60016020528060005260406000206000915054906101000a900460ff1681565b600360149054906101000a900460ff1681565b600360009054906101000a900473ffffffffffffffffffffffffffffffffffffffff1673ffffffffffffffffffffffffffffffffffffffff163373ffffffffffffffffffffffffffffffffffffffff161461094f576040517f08c379a00000000000000000000000000000000000000000000000000000000081526004016109469061111c565b60405180910390fd5b6000600360146101000a81548160ff0219169083151502179055507f66b6cb4a09abc3bf1cacc3c67420258856ffdad0deba9078cbd1658957b5021860405160405180910390a1565b60405180606001604052806000815260200160608152602001600081525090565b6000604051905090565b600080fd5b600080fd5b6000819050919050565b6109e0816109cd565b81146109eb57600080fd5b50565b6000813590506109fd816109d7565b92915050565b600060208284031215610a1957610a186109c3565b5b6000610a27848285016109ee565b91505092915050565b610a39816109cd565b82525050565b6000602082019050610a546000830184610a30565b92915050565b600081519050919050565b600082825260208201905092915050565b60005b83811015610a94578082015181840152602081019050610a79565b60008484015250505050565b6000601f19601f8301169050919050565b6000610abc82610a5a565b610ac68185610a65565b9350610ad6818560208601610a76565b610adf81610aa0565b840191505092915050565b6000606082019050610aff6000830186610a30565b8181036020830152610b118185610ab1565b9050610b206040830184610a30565b949350505050565b610b31816109cd565b82525050565b600082825260208201905092915050565b6000610b5382610a5a565b610b5d8185610b37565b9350610b6d818560208601610a76565b610b7681610aa0565b840191505092915050565b6000606083016000830151610b996000860182610b28565b5060208301518482036020860152610bb18282610b48565b9150506040830151610bc66040860182610b28565b508091505092915050565b60006020820190508181036000830152610beb8184610b81565b905092915050565b600080fd5b600080fd5b7f4e487b7100000000000000000000000000000000000000000000000000000000600052604160045260246000fd5b610c3582610aa0565b810181811067ffffffffffffffff82111715610c5457610c53610bfd565b5b80604052505050565b6000610c676109b9565b9050610c738282610c2c565b919050565b600067ffffffffffffffff821115610c9357610c92610bfd565b5b610c9c82610aa0565b9050602081019050919050565b82818337600083830152505050565b6000610ccb610cc684610c78565b610c5d565b905082815260208101848484011115610ce757610ce6610bf8565b5b610cf2848285610ca9565b509392505050565b600082601f830112610d0f57610d0e610bf3565b5b8135610d1f848260208601610cb8565b91505092915050565b600060208284031215610d3e57610d3d6109c3565b5b600082013567ffffffffffffffff811115610d5c57610d5b6109c8565b5b610d6884828501610cfa565b91505092915050565b600073ffffffffffffffffffffffffffffffffffffffff82169050919050565b6000610d9c82610d71565b9050919050565b610dac81610d91565b82525050565b6000602082019050610dc76000830184610da3565b92915050565b60006040820190508181036000830152610de78185610ab1565b9050610df66020830184610a30565b9392505050565b610e0681610d91565b8114610e1157600080fd5b50565b600081359050610e2381610dfd565b92915050565b600060208284031215610e3f57610e3e6109c3565b5b6000610e4d84828501610e14565b91505092915050565b60008115159050919050565b610e6b81610e56565b82525050565b6000602082019050610e866000830184610e62565b92915050565b7f566f74696e6720697320636c6f73656400000000000000000000000000000000600082015250565b6000610ec2601083610a65565b9150610ecd82610e8c565b602082019050919050565b60006020820190508181036000830152610ef181610eb5565b9050919050565b7f596f75206861766520616c726561647920766f74656400000000000000000000600082015250565b6000610f2e601683610a65565b9150610f3982610ef8565b602082019050919050565b60006020820190508181036000830152610f5d81610f21565b9050919050565b7f496e76616c69642063616e646964617465204944000000000000000000000000600082015250565b6000610f9a601483610a65565b9150610fa582610f64565b602082019050919050565b60006020820190508181036000830152610fc981610f8d565b9050919050565b7f4e487b7100000000000000000000000000000000000000000000000000000000600052601160045260246000fd5b600061100a826109cd565b91507fffffffffffffffffffffffffffffffffffffffffffffffffffffffffffffffff820361103c5761103b610fd0565b5b600182019050919050565b600060408201905061105c6000830185610a30565b6110696020830184610da3565b9392505050565b7f4e487b7100000000000000000000000000000000000000000000000000000000600052602260045260246000fd5b600060028204905060018216806110b757607f821691505b6020821081036110ca576110c9611070565b5b50919050565b7f4f6e6c79206f776e65722063616e20646f207468697300000000000000000000600082015250565b6000611106601683610a65565b9150611111826110d0565b602082019050919050565b60006020820190508181036000830152611135816110f9565b9050919050565b60008190508160005260206000209050919050565b60006020601f8301049050919050565b600082821b905092915050565b60006008830261119e7fffffffffffffffffffffffffffffffffffffffffffffffffffffffffffffffff82611161565b6111a88683611161565b95508019841693508086168417925050509392505050565b6000819050919050565b60006111e56111e06111db846109cd565b6111c0565b6109cd565b9050919050565b6000819050919050565b6111ff836111ca565b61121361120b826111ec565b84845461116e565b825550505050565b600090565b61122861121b565b6112338184846111f6565b505050565b5b818110156112575761124c600082611220565b600181019050611239565b5050565b601f82111561129c5761126d8161113c565b61127684611151565b81016020851015611285578190505b61129961129185611151565b830182611238565b50505b505050565b600082821c905092915050565b60006112bf600019846008026112a1565b1980831691505092915050565b60006112d883836112ae565b9150826002028217905092915050565b6112f182610a5a565b67ffffffffffffffff81111561130a57611309610bfd565b5b611314825461109f565b61131f82828561125b565b600060209050601f8311600181146113525760008415611340578287015190505b61134a85826112cc565b8655506113b2565b601f1984166113608661113c565b60005b8281101561138857848901518255600182019150602085019450602081019050611363565b868310156113a557848901516113a1601f8916826112ae565b8355505b6001600288020188555050505b505050505050565b60006040820190506113cf6000830185610a30565b81810360208301526113e18184610ab1565b90509392505050565b7f566f74696e67206d75737420626520636c6f73656420746f206765742074686560008201527f2077696e6e657200000000000000000000000000000000000000000000000000602082015250565b6000611446602783610a65565b9150611451826113ea565b604082019050919050565b6000602082019050818103600083015261147581611439565b905091905056fea2646970667358221220a0971d84ffc82cb42ed62232725afa7bba39e7180af016082f22559c111418b464736f6c634300081c0033",
  "linkReferences": {},
  "deployedLinkReferences": {}
}